:100000000200A30200000000000000020000000047
:1000100000000002000000000000000200000000DC
:0E0020000000000200000000000000020000CE
:0D002E00C29985159920990280FBC2992284
:05003B00C000C001221D
:05004000C298A89922FE
:0C004500A80AA61208A808A909113B226D
:06005100A298E433F8223E
:1000570075082E750900750A15750C40750D007524
:100067000E00750F51751000751100759850758742
:08007700807588407589202284
:08007F00E493F608A3D9F9226D
:10008700751300A8128614E5146010851415112E37
:0C0097000513E5122513F8861480EC22F6
:1000A3007581801200EF758DEA758BEA11577EA377
:1000B3007F1EDFFEDEFC0075123011871151E864EC
:1000C30001700A114085000B850012114580ED80F7
:0100D300FE2E
:0E00EF007830791B7582D475830012007F2251
:1000D4004C654B6861635175616E31373535323526
:0B00E40032303231363030303436001C
:00000001FF
