:1000000002022D02000000000000000200000000BB
:1000100000000002000000000000000200000000DC
:0E0020000000000200000000000000020000CE
:02002E000022AE
:0A0030007E097FE9DFFEDEFC0022FE
:06003A007F14DFFE00222E
:10004000E50E5480F8630080E86004780080027850
:1000500001E81392B7E50E5440F8630040E86004ED
:10006000780080027801E81392B6E50E5420F86318
:100070000020E86004780080027801E81392B5E57A
:100080000E5410F8630010E86004780080027801D4
:10009000E81392B4E5086004780080027801E81360
:1000A00092A5D2A7112EC2A7E50E5408F863000846
:1000B000E86004780080027801E81392B7E50E54F6
:1000C00004F8630004E86004780080027801E81313
:1000D00092B6E50E5402F8630002E86004780080EE
:1000E000027801E81392B5E50E5401F8630001E8C7
:1000F0006004780080027801E81392B4E508600497
:10010000780080027801E81392A5D2A7112EC2A729
:0B011000E508600411308002113A2263
:0C011B00750800850D0E114075080122CA
:08012700E493F608A3D9F922C4
:10012F00C2A7C2A5113011301130C2B7C2B6C2B5C5
:10013F00C2B4D2B5D2B4D2A7112EC2A71130D2A752
:10014F00112EC2A71130D2A7112EC2A71130D2B5CE
:10015F00C2B4D2A7112EC2A71130C2B7C2B6C2B550
:10016F00D2B5C2B4D2A7112EC2A7C2B5D2B7D2A7E9
:10017F00112EC2A71130C2B7D2B4D2A7112EC2A767
:10018F00C2B4D2A7112EC2A71130C2B4D2A7112E5A
:10019F00C2A7D2B4D2A7112EC2A71130C2B4D2A710
:1001AF00112EC2A7D2B7D2B6D2B5D2B4D2A7112EC2
:0801BF00C2A7113075080122EE
:1001C7008019750980802E7509C08029750994806A
:1001D700247509D4801F750980801AE509640160B8
:1001E700E1E509640260E0E509640360DFE50964AD
:1001F7000460DE80E1C3E50A9401F8E50928F88583
:10020700000985000E1140750800750C00E50B25E7
:100217000CF8E6600DE50B250CF8860D311B050C77
:0602270080EB75080122C6
:10022D00758180120277C2A6312F750E01114075AE
:10023D000E0C1140750901750A01750B3031C7752A
:0E024D000902750A01750B3B31C780FE80FE69
:0E0277007830791C75825B7583021201272294
:0B025B004C454B4841435155414E00BB
:10026600313735353235323032313630303034365A
:010276000087
:00000001FF
